{
  "contractName": "ItemStore",
  "abi": [
    {
      "anonymous": false,
      "inputs": [
        {
          "indexed": false,
          "internalType": "string[]",
          "name": "arr",
          "type": "string[]"
        }
      ],
      "name": "History",
      "type": "event"
    },
    {
      "anonymous": false,
      "inputs": [
        {
          "indexed": false,
          "internalType": "uint256",
          "name": "index",
          "type": "uint256"
        }
      ],
      "name": "ItemAdded",
      "type": "event"
    },
    {
      "anonymous": false,
      "inputs": [
        {
          "indexed": false,
          "internalType": "uint256",
          "name": "index",
          "type": "uint256"
        }
      ],
      "name": "StateAdded",
      "type": "event"
    },
    {
      "constant": true,
      "inputs": [
        {
          "internalType": "uint256",
          "name": "",
          "type": "uint256"
        }
      ],
      "name": "allItems",
      "outputs": [
        {
          "internalType": "uint256",
          "name": "itemId",
          "type": "uint256"
        },
        {
          "internalType": "string",
          "name": "name",
          "type": "string"
        },
        {
          "internalType": "uint256",
          "name": "timesTracked",
          "type": "uint256"
        },
        {
          "internalType": "address",
          "name": "creator",
          "type": "address"
        }
      ],
      "payable": false,
      "stateMutability": "view",
      "type": "function"
    },
    {
      "constant": true,
      "inputs": [],
      "name": "last_updated",
      "outputs": [
        {
          "internalType": "uint256",
          "name": "",
          "type": "uint256"
        }
      ],
      "payable": false,
      "stateMutability": "view",
      "type": "function"
    },
    {
      "constant": true,
      "inputs": [],
      "name": "total_items",
      "outputs": [
        {
          "internalType": "uint256",
          "name": "",
          "type": "uint256"
        }
      ],
      "payable": false,
      "stateMutability": "view",
      "type": "function"
    },
    {
      "constant": false,
      "inputs": [
        {
          "internalType": "string",
          "name": "text",
          "type": "string"
        },
        {
          "internalType": "string",
          "name": "_date",
          "type": "string"
        },
        {
          "internalType": "string",
          "name": "_location",
          "type": "string"
        }
      ],
      "name": "addItem",
      "outputs": [
        {
          "internalType": "uint256",
          "name": "",
          "type": "uint256"
        }
      ],
      "payable": false,
      "stateMutability": "nonpayable",
      "type": "function"
    },
    {
      "constant": false,
      "inputs": [
        {
          "internalType": "uint256",
          "name": "_itemId",
          "type": "uint256"
        },
        {
          "internalType": "string",
          "name": "_date",
          "type": "string"
        },
        {
          "internalType": "string",
          "name": "_location",
          "type": "string"
        }
      ],
      "name": "updateItem",
      "outputs": [
        {
          "internalType": "uint256",
          "name": "",
          "type": "uint256"
        }
      ],
      "payable": false,
      "stateMutability": "nonpayable",
      "type": "function"
    },
    {
      "constant": false,
      "inputs": [
        {
          "internalType": "uint256",
          "name": "_itemId",
          "type": "uint256"
        }
      ],
      "name": "getLocations",
      "outputs": [
        {
          "internalType": "string[]",
          "name": "",
          "type": "string[]"
        }
      ],
      "payable": false,
      "stateMutability": "nonpayable",
      "type": "function"
    },
    {
      "constant": false,
      "inputs": [
        {
          "internalType": "uint256",
          "name": "_itemId",
          "type": "uint256"
        }
      ],
      "name": "getDates",
      "outputs": [
        {
          "internalType": "string[]",
          "name": "",
          "type": "string[]"
        }
      ],
      "payable": false,
      "stateMutability": "nonpayable",
      "type": "function"
    }
  ],
  "bytecode": "0x60806040526000600155600060025534801561001a57600080fd5b506110c38061002a6000396000f3fe608060405234801561001057600080fd5b506004361061007d5760003560e01c8063891ec6281161005b578063891ec62814610100578063a98d5fc81461011e578063a9db56e31461014e578063ff68fa6e1461017e5761007d565b8063339ba34914610082578063461304ac146100b257806368900961146100e2575b600080fd5b61009c60048036036100979190810190610bda565b6101b1565b6040516100a99190610eb4565b60405180910390f35b6100cc60048036036100c79190810190610c9a565b6103ce565b6040516100d99190610eb4565b60405180910390f35b6100ea6105a5565b6040516100f79190610eb4565b60405180910390f35b6101086105ab565b6040516101159190610eb4565b60405180910390f35b61013860048036036101339190810190610c71565b6105b1565b6040516101459190610e72565b60405180910390f35b61016860048036036101639190810190610c71565b610790565b6040516101759190610e72565b60405180910390f35b61019860048036036101939190810190610c71565b61096f565b6040516101a89493929190610ecf565b60405180910390f35b60006101bb610a57565b60405180608001604052806001548152602001868152602001600181526020013373ffffffffffffffffffffffffffffffffffffffff1681525090506101ff610a95565b60405180606001604052808681526020018581526020013373ffffffffffffffffffffffffffffffffffffffff16815250905081600080600154815260200190815260200160002060008201518160000155602082015181600101908051906020019061026d929190610acc565b506040820151816002015560608201518160030160006101000a81548173ffffffffffffffffffffffffffffffffffffffff021916908373ffffffffffffffffffffffffffffffffffffffff16021790555090505080600080600154815260200190815260200160002060040160008081526020019081526020016000206000820151816000019080519060200190610307929190610acc565b506020820151816001019080519060200190610324929190610acc565b5060408201518160020160006101000a81548173ffffffffffffffffffffffffffffffffffffffff021916908373ffffffffffffffffffffffffffffffffffffffff16021790555090505060015460028190555060018054016001819055507f186760a37e06b130959978c68b5c592841caf4f64de1dc960b2c54cf454ca9dd60018054036040516103b69190610eb4565b60405180910390a16001805403925050509392505050565b6000600154841115610415576040517f08c379a000000000000000000000000000000000000000000000000000000000815260040161040c90610e94565b60405180910390fd5b61041d610a95565b60405180606001604052808581526020018481526020013373ffffffffffffffffffffffffffffffffffffffff16815250905080600080878152602001908152602001600020600401600080600089815260200190815260200160002060020154815260200190815260200160002060008201518160000190805190602001906104a8929190610acc565b5060208201518160010190805190602001906104c5929190610acc565b5060408201518160020160006101000a81548173ffffffffffffffffffffffffffffffffffffffff021916908373ffffffffffffffffffffffffffffffffffffffff1602179055509050506001600080878152602001908152602001600020600201540160008087815260200190815260200160002060020181905550846002819055507f860bc56e24504bad7ec3187ed6e606f7e64bbc64dec23d2795195797115654a1600160008088815260200190815260200160002060020154036040516105909190610eb4565b60405180910390a16002549150509392505050565b60025481565b60015481565b60606001548211156105f8576040517f08c379a00000000000000000000000000000000000000000000000000000000081526004016105ef90610e94565b60405180910390fd5b60606000808481526020019081526020016000206002015460405190808252806020026020018201604052801561064357816020015b606081526020019060019003908161062e5790505b50905060008090505b6000808581526020019081526020016000206002015481101561074f5760008085815260200190815260200160002060040160008281526020019081526020016000206000018054600181600116156101000203166002900480601f0160208091040260200160405190810160405280929190818152602001828054600181600116156101000203166002900480156107265780601f106106fb57610100808354040283529160200191610726565b820191906000526020600020905b81548152906001019060200180831161070957829003601f168201915b505050505082828151811061073757fe5b6020026020010181905250808060010191505061064c565b507f7dd9c1a9e70deb8b28ef6911e9d3eed4e16717a3f9c0ad71aca1152aba47e53f8160405161077f9190610e72565b60405180910390a180915050919050565b60606001548211156107d7576040517f08c379a00000000000000000000000000000000000000000000000000000000081526004016107ce90610e94565b60405180910390fd5b60606000808481526020019081526020016000206002015460405190808252806020026020018201604052801561082257816020015b606081526020019060019003908161080d5790505b50905060008090505b6000808581526020019081526020016000206002015481101561092e5760008085815260200190815260200160002060040160008281526020019081526020016000206001018054600181600116156101000203166002900480601f0160208091040260200160405190810160405280929190818152602001828054600181600116156101000203166002900480156109055780601f106108da57610100808354040283529160200191610905565b820191906000526020600020905b8154815290600101906020018083116108e857829003601f168201915b505050505082828151811061091657fe5b6020026020010181905250808060010191505061082b565b507f7dd9c1a9e70deb8b28ef6911e9d3eed4e16717a3f9c0ad71aca1152aba47e53f8160405161095e9190610e72565b60405180910390a180915050919050565b6000602052806000526040600020600091509050806000015490806001018054600181600116156101000203166002900480601f016020809104026020016040519081016040528092919081815260200182805460018160011615610100020316600290048015610a215780601f106109f657610100808354040283529160200191610a21565b820191906000526020600020905b815481529060010190602001808311610a0457829003601f168201915b5050505050908060020154908060030160009054906101000a900473ffffffffffffffffffffffffffffffffffffffff16905084565b6040518060800160405280600081526020016060815260200160008152602001600073ffffffffffffffffffffffffffffffffffffffff1681525090565b60405180606001604052806060815260200160608152602001600073ffffffffffffffffffffffffffffffffffffffff1681525090565b828054600181600116156101000203166002900490600052602060002090601f016020900481019282601f10610b0d57805160ff1916838001178555610b3b565b82800160010185558215610b3b579182015b82811115610b3a578251825591602001919060010190610b1f565b5b509050610b489190610b4c565b5090565b610b6e91905b80821115610b6a576000816000905550600101610b52565b5090565b90565b600082601f830112610b8257600080fd5b8135610b95610b9082610f48565b610f1b565b91508082526020830160208301858383011115610bb157600080fd5b610bbc838284611016565b50505092915050565b600081359050610bd481611069565b92915050565b600080600060608486031215610bef57600080fd5b600084013567ffffffffffffffff811115610c0957600080fd5b610c1586828701610b71565b935050602084013567ffffffffffffffff811115610c3257600080fd5b610c3e86828701610b71565b925050604084013567ffffffffffffffff811115610c5b57600080fd5b610c6786828701610b71565b9150509250925092565b600060208284031215610c8357600080fd5b6000610c9184828501610bc5565b91505092915050565b600080600060608486031215610caf57600080fd5b6000610cbd86828701610bc5565b935050602084013567ffffffffffffffff811115610cda57600080fd5b610ce686828701610b71565b925050604084013567ffffffffffffffff811115610d0357600080fd5b610d0f86828701610b71565b9150509250925092565b6000610d258383610db1565b905092915050565b610d3681610fda565b82525050565b6000610d4782610f84565b610d518185610fa7565b935083602082028501610d6385610f74565b8060005b85811015610d9f5784840389528151610d808582610d19565b9450610d8b83610f9a565b925060208a01995050600181019050610d67565b50829750879550505050505092915050565b6000610dbc82610f8f565b610dc68185610fb8565b9350610dd6818560208601611025565b610ddf81611058565b840191505092915050565b6000610df582610f8f565b610dff8185610fc9565b9350610e0f818560208601611025565b610e1881611058565b840191505092915050565b6000610e30600f83610fc9565b91507f496e76616c6964206974656d20696400000000000000000000000000000000006000830152602082019050919050565b610e6c8161100c565b82525050565b60006020820190508181036000830152610e8c8184610d3c565b905092915050565b60006020820190508181036000830152610ead81610e23565b9050919050565b6000602082019050610ec96000830184610e63565b92915050565b6000608082019050610ee46000830187610e63565b8181036020830152610ef68186610dea565b9050610f056040830185610e63565b610f126060830184610d2d565b95945050505050565b6000604051905081810181811067ffffffffffffffff82111715610f3e57600080fd5b8060405250919050565b600067ffffffffffffffff821115610f5f57600080fd5b601f19601f8301169050602081019050919050565b6000819050602082019050919050565b600081519050919050565b600081519050919050565b6000602082019050919050565b600082825260208201905092915050565b600082825260208201905092915050565b600082825260208201905092915050565b6000610fe582610fec565b9050919050565b600073ffffffffffffffffffffffffffffffffffffffff82169050919050565b6000819050919050565b82818337600083830152505050565b60005b83811015611043578082015181840152602081019050611028565b83811115611052576000848401525b50505050565b6000601f19601f8301169050919050565b6110728161100c565b811461107d57600080fd5b5056fea365627a7a723158200e42146ab8a49ee254b6b65cb385905a165e32e8ee0fce6d369c523cbc42f5cf6c6578706572696d656e74616cf564736f6c63430005100040",
  "source": "pragma solidity ^0.5.0;\npragma experimental ABIEncoderV2;\n\ncontract ItemStore {\n\n  event ItemAdded(uint256 index);\n  event StateAdded(uint256 index);\n  event History(string[] arr);\n\n  struct State {\n    string date;\n    string location;\n    address editor;\n  }\n\n  struct Item {\n    uint256 itemId;\n    string name;\n    uint256 timesTracked;\n    address creator;\n    mapping (uint256 => State) states;\n  }\n\n  // array of items\n  mapping(uint => Item) public allItems;\n\n  uint256 public total_items=0;\n  uint256 public last_updated=0;\n\n  // adding an item\n  function addItem(string memory text, string memory _date, string memory _location) public returns (uint) {\n    Item memory newItem = Item({\n      itemId: total_items,\n      name: text,\n      timesTracked: 1,\n      creator: msg.sender\n    });\n    State memory newState = State({\n      date: _date,\n      location: _location,\n      editor: msg.sender\n    });\n\n    allItems[total_items] = newItem;\n    allItems[total_items].states[0] = newState;\n    last_updated = total_items;\n\n    total_items = total_items + 1;\n    emit ItemAdded(total_items-1);\n    return (total_items - 1);\n  }\n\n  // add state to an item\n  function updateItem(uint _itemId, string memory _date, string memory _location) public returns (uint) {\n    require(_itemId <= total_items, \"Invalid item id\");\n\n    State memory newState = State({\n      date: _date,\n      location: _location,\n      editor: msg.sender\n    });\n\n    allItems[_itemId].states[allItems[_itemId].timesTracked] = newState;\n    allItems[_itemId].timesTracked = allItems[_itemId].timesTracked + 1;\n    last_updated = _itemId;\n    emit StateAdded(allItems[_itemId].timesTracked - 1);\n    return last_updated;\n  }\n\n  // retrieves all locations \n  function getLocations(uint _itemId) public returns (string[] memory) {\n    require(_itemId <= total_items, \"Invalid item id\");\n    string[] memory output = new string[](allItems[_itemId].timesTracked);\n    for (uint256 i = 0; i < allItems[_itemId].timesTracked; i++) {\n        output[i] = allItems[_itemId].states[i].location;\n    }\n    emit History(output);\n    return output;\n  }\n\n  // retrieves all timestamps\n  function getDates(uint _itemId) public returns (string[] memory) {\n    require(_itemId <= total_items, \"Invalid item id\");\n    string[] memory output = new string[](allItems[_itemId].timesTracked);\n    for (uint256 i = 0; i < allItems[_itemId].timesTracked; i++) {\n        output[i] = allItems[_itemId].states[i].date;\n    }\n    emit History(output);\n    return output;\n  }\n}",
  "sourcePath": "/home/suhavi/Documents/OpenSource/DigitalOrange/mobile/contracts/ItemStore.sol",
  "compiler": {
    "name": "solc",
    "version": "0.5.16+commit.9c3226ce.Emscripten.clang"
  },
  "schemaVersion": "3.3.1",
  "updatedAt": "2021-05-28T01:02:00.450Z",
  "networkType": "ethereum",
  "devdoc": {
    "methods": {}
  },
  "userdoc": {
    "methods": {}
  }
}